:100000000C9434000C94D0010C94BB010C9451005E
:100010000C9451000C9451000C9451000C9451001C
:100020000C9451000C946F020C9451000C945100EC
:100030000C9451000C9497010C9451000C945100B5
:100040000C9451000C9451000C9469010C943F01E4
:100050000C9451000C94E5010C9451000C94510047
:100060000C9451000C94510011241FBECFEFD8E026
:10007000DEBFCDBF11E0A0E0B1E0EEE9FAE002C0E2
:1000800005900D92A438B107D9F722E0A4E8B1E0B9
:1000900001C01D92AA31B207E1F70E949B030C94A4
:1000A0004D050C940000299A85E08A95F1F700002F
:1000B00029980895CF93C82F662369F1289A549AF6
:1000C000559A569A579A5F985E985D985C98C7FDC6
:1000D0005F9AC6FD5E9AC5FD5D9AC4FD5C9A0E945A
:1000E00053005F985E985D985C98C3FD5F9AC2FD6F
:1000F0005E9AC1FD5D9AC0FD5C9A0E9453005C9AB5
:100100005D9A5E9A5F9A8FE79CE00197F1F700C0D5
:100110000000CF9108952898D2CFCF93DF93EC01C0
:100120008991811103C0DF91CF91089561E00E9410
:100130005A00F6CF60E00C945A0080918100887FCD
:100140008093810010928F0180E80E949A0085E3DD
:1001500091E00E948D0080E80E949A0086E491E080
:100160000E948D0080918B0190918C0120918701DC
:10017000309188018217930720F090938801809333
:1001800087018CEC0E949A0082E491E00E948D002D
:100190008CEC0E949A004AE064E871E0809187014B
:1001A000909188010E94B50484E891E00C948D0040
:1001B00080E80E949A0085E391E00E948D0082E829
:1001C0000E949A000E94A5040E94AA040E94A5040D
:1001D00097FF02C08150904E88E09802812D990BC4
:1001E00011248093890161E00E945A0082EC0E94F0
:1001F0009A0082E491E00E948D0082EC0E949A00B5
:100200004AE064E871E080918B0190918C010E943A
:10021000B50484E891E00C948D0090918100987F62
:100220009093810090918901981327C080918B0150
:1002300090918C01019690938C0180938B010E9488
:10024000D800809181008D7F809381008091810012
:10025000856080938100809100018150990B43E378
:1002600053E3849F9001859F300D949F300D11249E
:10027000309385002093840008950C949D001F9274
:100280000F920FB60F9211248F939F93EF93FF93CA
:1002900090911902809118029817A9F0E091180224
:1002A000EF5FEF73E0931802F0E0E852FE4F8081B9
:1002B0008093C600FF91EF919F918F910F900FBE99
:1002C0000F901F9018958091C1008F7D8093C10081
:1002D000F1CF1F920F920FB60F9211242F938F938D
:1002E0009F93EF93FF938091C0009091C600E0919F
:1002F000D701EF5FEF732091D6012E17B1F08C710B
:10030000E093D701F0E0EA56FE4F9083909195017B
:10031000892B80939501FF91EF919F918F912F9160
:100320000F900FBE0F901F90189582E0EFCF1F9295
:100330000F920FB60F9211242F933F934F935F9319
:100340006F937F938F939F93AF93BF93EF93FF939D
:100350000E949D00FF91EF91BF91AF919F918F916E
:100360007F916F915F914F913F912F910F900FBEB1
:100370000F901F9018951F920F920FB60F92112495
:100380008F9380919401811105C0809193018F5FBB
:10039000809394018F910F900FBE0F901F9018952E
:1003A0001F920F920FB60F9211248F938091930199
:1003B000811105C0809194018F5F809393018F918B
:1003C0000F900FBE0F901F9018951F920F920FB6AF
:1003D0000F9211242F933F934F935F936F937F93CB
:1003E0008F939F93AF93BF93EF93FF938091780088
:1003F0009091790020919201211141C0883C910592
:1004000010F520919101211132C02091900121110C
:100410002EC020918F01213051F52093900180E072
:100420000E940D01FF91EF91BF91AF919F918F912C
:100430007F916F915F914F913F912F910F900FBEE0
:100440000F901F901895813223E0920780F0209141
:10045000910121110CC020919001211108C020911F
:100460008F01213021F42093900182E0D9CF81596E
:100470009140873C9105B0F610929001D3CF883C13
:10048000910580F420919101211120C020919001CB
:1004900021111CC020918F012130C1F420939101C2
:1004A00083E0BECF813223E0920780F0209191015A
:1004B00021110CC020919001211108C020918F01C1
:1004C000213021F42093910181E0AACF81599140FC
:1004D000873C910508F0A6CF10929101A3CF1F92FF
:1004E0000F920FB60F921124CF92DF92EF92FF92EC
:1004F0002F933F934F935F936F937F938F939F932C
:10050000AF93BF93CF93EF93FF9380918E018F5F53
:1005100080938E01909192019111CBC0823078F03E
:1005200080917C00807F80937C0080917A00806441
:1005300080937A0081E08093920110928E018091E5
:100540009301813061F580919401823009F054C0AB
:1005500080918F011092930110929401823009F0E2
:100560004BC080910001823008F446C081508093D6
:1005700000018DE80E949A0083E491E00E948D00C2
:10058000809100014AE06AE871E090E00E94B504C1
:100590008DE80E949A008AE891E00E948D00809187
:1005A0009301823049F580919401813029F5809141
:1005B0008F0110929301109294018230E9F480919E
:1005C00000018530C8F48F5F809300018DE80E94A0
:1005D0009A0083E491E00E948D00809100014AE03E
:1005E0006AE871E090E00E94B5048DE80E949A00EC
:1005F0008AE891E00E948D001C9998C080918D013D
:10060000811194C080918F01811168C082E0809334
:100610008F0180E80E949A0085E391E00E948D009E
:1006200080E80E949A0086E591E00E948D0083E0B8
:100630008093000181E080938D0180918F01813052
:1006400011F5C5E889E9C82E89E1D82EE12CF12CF5
:100650008091840090918500B0E0A0E0C816D90692
:10066000EA06FB063CF48C2F0E949A0061E08FEFB3
:100670000E945A0089E9C80E89E1D81EE11CF11CCC
:10068000CF5FCF3829F7FF91EF91CF91BF91AF9115
:100690009F918F917F916F915F914F913F912F919A
:1006A000FF90EF90DF90CF900F900FBE0F901F90B4
:1006B0001895823008F443CF80917C00817F80932D
:1006C0007C0080917C00816080937C0080917A0026
:1006D000806480937A00109292012FCF823009F0CB
:1006E000A9CF10928C0110928B0181E080938F0131
:1006F0000E94D800809181008D7F8093810080913D
:100700008100856080938100809100018150990B68
:100710004AEA5AE2849F9001859F300D949F300DE4
:100720001124309385002093840084CF1C9B85CFB7
:1007300010928D0182CF209A559A219A549A559AF7
:10074000569A579A8FEF99EF0197F1F700C0000082
:100750005D9A5C9A0E9453008FE19EE40197F1F745
:1007600000C000000E9453008FEF90E00197F1F766
:1007700000C000000E9453008FEF90E00197F1F756
:1007800000C000005C980E9453008FEF90E001973A
:10079000F1F700C0000088E20E949A0088E00E9401
:1007A0009A0081E00E949A0086E00E949A008CE004
:1007B0000E949A0010921902109218021092D7010A
:1007C0001092D6011092C50087E68093C40088E994
:1007D0008093C10086E08093C20080E40E949A006A
:1007E000C5E0D1E061E089910E945A0091E0C533F3
:1007F000D907C1F780E80E949A0081EC0E949A0014
:1008000061E084E00E945A0086E691E00E948D003B
:1008100061E085E00E945A0080E791E00E948D002F
:1008200080917C00806480937C0080917C00807F3C
:1008300080937C0080917A00806880937A00809118
:100840007A00886080937A0080917A008760809334
:100850007A008AB1837F8AB98BB1837F8BB9249860
:100860002C9A85B7856085BF85B7857F85BF8DB399
:1008700083608DBB8091B10087608093B1008091CF
:10088000700081608093700080916F008160809320
:100890006F00789480E80E949A0085E391E00E94BE
:1008A0008D0080E80E949A0082E791E00E948D000E
:1008B000FFCF8F929F92AF92BF92CF92DF92EF9233
:1008C000FF92CF93DF93EC01688179818A819B81CC
:1008D000611571058105910521F464E279ED8BE5DF
:1008E00097E02DE133EF41E050E00E94EA04490136
:1008F0005A019B01AC01A7EAB1E40E9409056B0112
:100900007C01ACEEB4EFA50194010E941705DC0157
:10091000CB018C0D9D1DAE1DBF1DB7FF03C0019700
:10092000A109B04888839983AA83BB839F77DF910D
:10093000CF91FF90EF90DF90CF90BF90AF909F90BE
:100940008F9008950E945904089581E091E00E94DB
:1009500059040895B0E0A0E0809301019093020152
:10096000A0930301B09304010895BB274A3031F4EA
:10097000992322F4BDE2909581959F4F0C94C10478
:10098000BB27FB015527AA27880F991FAA1FA41769
:1009900010F0A41B83955051B9F7A05DAA3308F05D
:1009A000A95DA193009779F7B111B1931192CB0191
:1009B0000C94DA04DC01FC01672F71917723E1F7D5
:1009C000329704C07C916D9370836291AE17BF071C
:1009D000C8F30895052E97FB1EF400940E940105AC
:1009E00057FD07D00E941C0507FC03D04EF40C9461
:1009F000010550954095309521953F4F4F4F5F4FE2
:100A0000089590958095709561957F4F8F4F9F4F7A
:100A100008950E943E05A59F900DB49F900DA49F40
:100A2000800D911D11240895B7FF0C9409050E94B3
:100A30000905821B930B0895A1E21A2EAA1BBB1B6A
:100A4000FD010DC0AA1FBB1FEE1FFF1FA217B3079A
:100A5000E407F50720F0A21BB30BE40BF50B661FB0
:100A6000771F881F991F1A9469F760957095809574
:100A700090959B01AC01BD01CF010895A29FB001EB
:100A8000B39FC001A39F700D811D1124911DB29FC2
:0E0A9000700D811D1124911D0895F894FFCF63
:100A9E00030100000000040E15040404000004020B
:100AAE001F0204000000040404150E0400000408D4
:100ABE001F08040000000103161C080000000415A6
:100ACE000E15040000202020202020202020202091
:100ADE0020202020200047414D45204F56455221D1
:100AEE00205B4F4B5D0020646966666963756C74AC
:100AFE00793A203320003020202020202020200092
:100B0E00300047414D452053544152543F205B4FD6
:040B1E004B5D00002B
:00000001FF
